{
  "abi": [
    {
      "anonymous": false,
      "inputs": [
        {
          "indexed": false,
          "internalType": "string",
          "name": "ticketHash",
          "type": "string"
        },
        {
          "indexed": false,
          "internalType": "string",
          "name": "eventName",
          "type": "string"
        },
        {
          "indexed": false,
          "internalType": "address",
          "name": "owner",
          "type": "address"
        }
      ],
      "name": "TicketCreated",
      "type": "event"
    },
    {
      "anonymous": false,
      "inputs": [
        {
          "indexed": false,
          "internalType": "string",
          "name": "ticketHash",
          "type": "string"
        }
      ],
      "name": "TicketVerified",
      "type": "event"
    },
    {
      "inputs": [
        {
          "internalType": "string",
          "name": "_ticketHash",
          "type": "string"
        },
        {
          "internalType": "string",
          "name": "_eventName",
          "type": "string"
        },
        {
          "internalType": "address",
          "name": "_owner",
          "type": "address"
        }
      ],
      "name": "createTicket",
      "outputs": [],
      "stateMutability": "nonpayable",
      "type": "function"
    },
    {
      "inputs": [
        {
          "internalType": "string",
          "name": "_ticketHash",
          "type": "string"
        }
      ],
      "name": "isVerified",
      "outputs": [
        {
          "internalType": "bool",
          "name": "",
          "type": "bool"
        }
      ],
      "stateMutability": "view",
      "type": "function"
    },
    {
      "inputs": [
        {
          "internalType": "string",
          "name": "_ticketHash",
          "type": "string"
        }
      ],
      "name": "verifyTicket",
      "outputs": [
        {
          "internalType": "bool",
          "name": "",
          "type": "bool"
        }
      ],
      "stateMutability": "nonpayable",
      "type": "function"
    }
  ],
  "evm": {
    "bytecode": {
      "linkReferences": {},
      "object": "6080604052348015600f57600080fd5b50610cee8061001f6000396000f3fe608060405234801561001057600080fd5b50600436106100415760003560e01c8063234c76d514610046578063c1fb537014610076578063cd8fb6af146100a6575b600080fd5b610060600480360381019061005b91906105c9565b6100c2565b60405161006d919061062d565b60405180910390f35b610090600480360381019061008b91906105c9565b610165565b60405161009d919061062d565b60405180910390f35b6100c060048036038101906100bb91906106a6565b6102bb565b005b60006001826040516100d491906107a2565b908152602001604051809103902060009054906101000a900460ff1661012f576040517f08c379a000000000000000000000000000000000000000000000000000000000815260040161012690610816565b60405180910390fd5b60008260405161013f91906107a2565b908152602001604051809103902060010160149054906101000a900460ff169050919050565b600060018260405161017791906107a2565b908152602001604051809103902060009054906101000a900460ff166101d2576040517f08c379a00000000000000000000000000000000000000000000000000000000081526004016101c990610816565b60405180910390fd5b6000826040516101e291906107a2565b908152602001604051809103902060010160149054906101000a900460ff1615610241576040517f08c379a000000000000000000000000000000000000000000000000000000000815260040161023890610882565b60405180910390fd5b600160008360405161025391906107a2565b908152602001604051809103902060010160146101000a81548160ff0219169083151502179055507f8272acb497b890c40d3a38e0b2a4cebfd3cc68d92aa053ac39a61c3960595584826040516102aa91906108db565b60405180910390a160019050919050565b6001836040516102cb91906107a2565b908152602001604051809103902060009054906101000a900460ff1615610327576040517f08c379a000000000000000000000000000000000000000000000000000000000815260040161031e90610949565b60405180910390fd5b60405180606001604052808381526020018273ffffffffffffffffffffffffffffffffffffffff1681526020016000151581525060008460405161036b91906107a2565b9081526020016040518091039020600082015181600001908161038e9190610b92565b5060208201518160010160006101000a81548173ffffffffffffffffffffffffffffffffffffffff021916908373ffffffffffffffffffffffffffffffffffffffff16021790555060408201518160010160146101000a81548160ff0219169083151502179055509050506001808460405161040a91906107a2565b908152602001604051809103902060006101000a81548160ff0219169083151502179055507f99663d13e9d65ac4b162365ce28314e74fe942539a9b8fb37f36cd7fd04ffeb183838360405161046293929190610c73565b60405180910390a1505050565b6000604051905090565b600080fd5b600080fd5b600080fd5b600080fd5b6000601f19601f8301169050919050565b7f4e487b7100000000000000000000000000000000000000000000000000000000600052604160045260246000fd5b6104d68261048d565b810181811067ffffffffffffffff821117156104f5576104f461049e565b5b80604052505050565b600061050861046f565b905061051482826104cd565b919050565b600067ffffffffffffffff8211156105345761053361049e565b5b61053d8261048d565b9050602081019050919050565b82818337600083830152505050565b600061056c61056784610519565b6104fe565b90508281526020810184848401111561058857610587610488565b5b61059384828561054a565b509392505050565b600082601f8301126105b0576105af610483565b5b81356105c0848260208601610559565b91505092915050565b6000602082840312156105df576105de610479565b5b600082013567ffffffffffffffff8111156105fd576105fc61047e565b5b6106098482850161059b565b91505092915050565b60008115159050919050565b61062781610612565b82525050565b6000602082019050610642600083018461061e565b92915050565b600073ffffffffffffffffffffffffffffffffffffffff82169050919050565b600061067382610648565b9050919050565b61068381610668565b811461068e57600080fd5b50565b6000813590506106a08161067a565b92915050565b6000806000606084860312156106bf576106be610479565b5b600084013567ffffffffffffffff8111156106dd576106dc61047e565b5b6106e98682870161059b565b935050602084013567ffffffffffffffff81111561070a5761070961047e565b5b6107168682870161059b565b925050604061072786828701610691565b9150509250925092565b600081519050919050565b600081905092915050565b60005b8381101561076557808201518184015260208101905061074a565b60008484015250505050565b600061077c82610731565b610786818561073c565b9350610796818560208601610747565b80840191505092915050565b60006107ae8284610771565b915081905092915050565b600082825260208201905092915050565b7f5469636b657420646f6573206e6f742065786973740000000000000000000000600082015250565b60006108006015836107b9565b915061080b826107ca565b602082019050919050565b6000602082019050818103600083015261082f816107f3565b9050919050565b7f416c726561647920766572696669656400000000000000000000000000000000600082015250565b600061086c6010836107b9565b915061087782610836565b602082019050919050565b6000602082019050818103600083015261089b8161085f565b9050919050565b60006108ad82610731565b6108b781856107b9565b93506108c7818560208601610747565b6108d08161048d565b840191505092915050565b600060208201905081810360008301526108f581846108a2565b905092915050565b7f5469636b657420616c7265616479206578697374730000000000000000000000600082015250565b60006109336015836107b9565b915061093e826108fd565b602082019050919050565b6000602082019050818103600083015261096281610926565b9050919050565b7f4e487b7100000000000000000000000000000000000000000000000000000000600052602260045260246000fd5b600060028204905060018216806109b057607f821691505b6020821081036109c3576109c2610969565b5b50919050565b60008190508160005260206000209050919050565b60006020601f8301049050919050565b600082821b905092915050565b600060088302610a2b7fffffffffffffffffffffffffffffffffffffffffffffffffffffffffffffffff826109ee565b610a3586836109ee565b95508019841693508086168417925050509392505050565b6000819050919050565b6000819050919050565b6000610a7c610a77610a7284610a4d565b610a57565b610a4d565b9050919050565b6000819050919050565b610a9683610a61565b610aaa610aa282610a83565b8484546109fb565b825550505050565b600090565b610abf610ab2565b610aca818484610a8d565b505050565b60005b82811015610af257610ae76000828401610ab7565b600181019050610ad2565b505050565b601f821115610b465782821115610b4557610b11816109c9565b610b1a836109de565b610b23856109de565b6020861015610b3157600090505b808301610b4082840382610acf565b505050505b5b505050565b600082821c905092915050565b6000610b6960001984600802610b4b565b1980831691505092915050565b6000610b828383610b58565b9150826002028217905092915050565b610b9b82610731565b67ffffffffffffffff811115610bb457610bb361049e565b5b610bbe8254610998565b610bc9828285610af7565b600060209050601f831160018114610bfc5760008415610bea578287015190505b610bf48582610b76565b865550610c5c565b601f198416610c0a866109c9565b60005b82811015610c3257848901518255600182019150602085019450602081019050610c0d565b86831015610c4f5784890151610c4b601f891682610b58565b8355505b6001600288020188555050505b505050505050565b610c6d81610668565b82525050565b60006060820190508181036000830152610c8d81866108a2565b90508181036020830152610ca181856108a2565b9050610cb06040830184610c64565b94935050505056fea2646970667358221220f1b2c70ce9bb65f0a372b559d72ea4c2a0021a9fb08e8d2f40cf99e826957b7064736f6c63430008210033",
      "opcodes": "PUSH1 0x80 PUSH1 0x40 MSTORE CALLVALUE DUP1 ISZERO PUSH1 0xF JUMPI PUSH1 0x0 DUP1 REVERT JUMPDEST POP PUSH2 0xCEE DUP1 PUSH2 0x1F PUSH1 0x0 CODECOPY PUSH1 0x0 RETURN INVALID PUSH1 0x80 PUSH1 0x40 MSTORE CALLVALUE DUP1 ISZERO PUSH2 0x10 JUMPI PUSH1 0x0 DUP1 REVERT JUMPDEST POP PUSH1 0x4 CALLDATASIZE LT PUSH2 0x41 JUMPI PUSH1 0x0 CALLDATALOAD PUSH1 0xE0 SHR DUP1 PUSH4 0x234C76D5 EQ PUSH2 0x46 JUMPI DUP1 PUSH4 0xC1FB5370 EQ PUSH2 0x76 JUMPI DUP1 PUSH4 0xCD8FB6AF EQ PUSH2 0xA6 JUMPI JUMPDEST PUSH1 0x0 DUP1 REVERT JUMPDEST PUSH2 0x60 PUSH1 0x4 DUP1 CALLDATASIZE SUB DUP2 ADD SWAP1 PUSH2 0x5B SWAP2 SWAP1 PUSH2 0x5C9 JUMP JUMPDEST PUSH2 0xC2 JUMP JUMPDEST PUSH1 0x40 MLOAD PUSH2 0x6D SWAP2 SWAP1 PUSH2 0x62D JUMP JUMPDEST PUSH1 0x40 MLOAD DUP1 SWAP2 SUB SWAP1 RETURN JUMPDEST PUSH2 0x90 PUSH1 0x4 DUP1 CALLDATASIZE SUB DUP2 ADD SWAP1 PUSH2 0x8B SWAP2 SWAP1 PUSH2 0x5C9 JUMP JUMPDEST PUSH2 0x165 JUMP JUMPDEST PUSH1 0x40 MLOAD PUSH2 0x9D SWAP2 SWAP1 PUSH2 0x62D JUMP JUMPDEST PUSH1 0x40 MLOAD DUP1 SWAP2 SUB SWAP1 RETURN JUMPDEST PUSH2 0xC0 PUSH1 0x4 DUP1 CALLDATASIZE SUB DUP2 ADD SWAP1 PUSH2 0xBB SWAP2 SWAP1 PUSH2 0x6A6 JUMP JUMPDEST PUSH2 0x2BB JUMP JUMPDEST STOP JUMPDEST PUSH1 0x0 PUSH1 0x1 DUP3 PUSH1 0x40 MLOAD PUSH2 0xD4 SWAP2 SWAP1 PUSH2 0x7A2 JUMP JUMPDEST SWAP1 DUP2 MSTORE PUSH1 0x20 ADD PUSH1 0x40 MLOAD DUP1 SWAP2 SUB SWAP1 KECCAK256 PUSH1 0x0 SWAP1 SLOAD SWAP1 PUSH2 0x100 EXP SWAP1 DIV PUSH1 0xFF AND PUSH2 0x12F JUMPI PUSH1 0x40 MLOAD PUSH32 0x8C379A000000000000000000000000000000000000000000000000000000000 DUP2 MSTORE PUSH1 0x4 ADD PUSH2 0x126 SWAP1 PUSH2 0x816 JUMP JUMPDEST PUSH1 0x40 MLOAD DUP1 SWAP2 SUB SWAP1 REVERT JUMPDEST PUSH1 0x0 DUP3 PUSH1 0x40 MLOAD PUSH2 0x13F SWAP2 SWAP1 PUSH2 0x7A2 JUMP JUMPDEST SWAP1 DUP2 MSTORE PUSH1 0x20 ADD PUSH1 0x40 MLOAD DUP1 SWAP2 SUB SWAP1 KECCAK256 PUSH1 0x1 ADD PUSH1 0x14 SWAP1 SLOAD SWAP1 PUSH2 0x100 EXP SWAP1 DIV PUSH1 0xFF AND SWAP1 POP SWAP2 SWAP1 POP JUMP JUMPDEST PUSH1 0x0 PUSH1 0x1 DUP3 PUSH1 0x40 MLOAD PUSH2 0x177 SWAP2 SWAP1 PUSH2 0x7A2 JUMP JUMPDEST SWAP1 DUP2 MSTORE PUSH1 0x20 ADD PUSH1 0x40 MLOAD DUP1 SWAP2 SUB SWAP1 KECCAK256 PUSH1 0x0 SWAP1 SLOAD SWAP1 PUSH2 0x100 EXP SWAP1 DIV PUSH1 0xFF AND PUSH2 0x1D2 JUMPI PUSH1 0x40 MLOAD PUSH32 0x8C379A000000000000000000000000000000000000000000000000000000000 DUP2 MSTORE PUSH1 0x4 ADD PUSH2 0x1C9 SWAP1 PUSH2 0x816 JUMP JUMPDEST PUSH1 0x40 MLOAD DUP1 SWAP2 SUB SWAP1 REVERT JUMPDEST PUSH1 0x0 DUP3 PUSH1 0x40 MLOAD PUSH2 0x1E2 SWAP2 SWAP1 PUSH2 0x7A2 JUMP JUMPDEST SWAP1 DUP2 MSTORE PUSH1 0x20 ADD PUSH1 0x40 MLOAD DUP1 SWAP2 SUB SWAP1 KECCAK256 PUSH1 0x1 ADD PUSH1 0x14 SWAP1 SLOAD SWAP1 PUSH2 0x100 EXP SWAP1 DIV PUSH1 0xFF AND ISZERO PUSH2 0x241 JUMPI PUSH1 0x40 MLOAD PUSH32 0x8C379A000000000000000000000000000000000000000000000000000000000 DUP2 MSTORE PUSH1 0x4 ADD PUSH2 0x238 SWAP1 PUSH2 0x882 JUMP JUMPDEST PUSH1 0x40 MLOAD DUP1 SWAP2 SUB SWAP1 REVERT JUMPDEST PUSH1 0x1 PUSH1 0x0 DUP4 PUSH1 0x40 MLOAD PUSH2 0x253 SWAP2 SWAP1 PUSH2 0x7A2 JUMP JUMPDEST SWAP1 DUP2 MSTORE PUSH1 0x20 ADD PUSH1 0x40 MLOAD DUP1 SWAP2 SUB SWAP1 KECCAK256 PUSH1 0x1 ADD PUSH1 0x14 PUSH2 0x100 EXP DUP2 SLOAD DUP2 PUSH1 0xFF MUL NOT AND SWAP1 DUP4 ISZERO ISZERO MUL OR SWAP1 SSTORE POP PUSH32 0x8272ACB497B890C40D3A38E0B2A4CEBFD3CC68D92AA053AC39A61C3960595584 DUP3 PUSH1 0x40 MLOAD PUSH2 0x2AA SWAP2 SWAP1 PUSH2 0x8DB JUMP JUMPDEST PUSH1 0x40 MLOAD DUP1 SWAP2 SUB SWAP1 LOG1 PUSH1 0x1 SWAP1 POP SWAP2 SWAP1 POP JUMP JUMPDEST PUSH1 0x1 DUP4 PUSH1 0x40 MLOAD PUSH2 0x2CB SWAP2 SWAP1 PUSH2 0x7A2 JUMP JUMPDEST SWAP1 DUP2 MSTORE PUSH1 0x20 ADD PUSH1 0x40 MLOAD DUP1 SWAP2 SUB SWAP1 KECCAK256 PUSH1 0x0 SWAP1 SLOAD SWAP1 PUSH2 0x100 EXP SWAP1 DIV PUSH1 0xFF AND ISZERO PUSH2 0x327 JUMPI PUSH1 0x40 MLOAD PUSH32 0x8C379A000000000000000000000000000000000000000000000000000000000 DUP2 MSTORE PUSH1 0x4 ADD PUSH2 0x31E SWAP1 PUSH2 0x949 JUMP JUMPDEST PUSH1 0x40 MLOAD DUP1 SWAP2 SUB SWAP1 REVERT JUMPDEST PUSH1 0x40 MLOAD DUP1 PUSH1 0x60 ADD PUSH1 0x40 MSTORE DUP1 DUP4 DUP2 MSTORE PUSH1 0x20 ADD DUP3 PUSH20 0xFFFFFFFFFFFFFFFFFFFFFFFFFFFFFFFFFFFFFFFF AND DUP2 MSTORE PUSH1 0x20 ADD PUSH1 0x0 ISZERO ISZERO DUP2 MSTORE POP PUSH1 0x0 DUP5 PUSH1 0x40 MLOAD PUSH2 0x36B SWAP2 SWAP1 PUSH2 0x7A2 JUMP JUMPDEST SWAP1 DUP2 MSTORE PUSH1 0x20 ADD PUSH1 0x40 MLOAD DUP1 SWAP2 SUB SWAP1 KECCAK256 PUSH1 0x0 DUP3 ADD MLOAD DUP2 PUSH1 0x0 ADD SWAP1 DUP2 PUSH2 0x38E SWAP2 SWAP1 PUSH2 0xB92 JUMP JUMPDEST POP PUSH1 0x20 DUP3 ADD MLOAD DUP2 PUSH1 0x1 ADD PUSH1 0x0 PUSH2 0x100 EXP DUP2 SLOAD DUP2 PUSH20 0xFFFFFFFFFFFFFFFFFFFFFFFFFFFFFFFFFFFFFFFF MUL NOT AND SWAP1 DUP4 PUSH20 0xFFFFFFFFFFFFFFFFFFFFFFFFFFFFFFFFFFFFFFFF AND MUL OR SWAP1 SSTORE POP PUSH1 0x40 DUP3 ADD MLOAD DUP2 PUSH1 0x1 ADD PUSH1 0x14 PUSH2 0x100 EXP DUP2 SLOAD DUP2 PUSH1 0xFF MUL NOT AND SWAP1 DUP4 ISZERO ISZERO MUL OR SWAP1 SSTORE POP SWAP1 POP POP PUSH1 0x1 DUP1 DUP5 PUSH1 0x40 MLOAD PUSH2 0x40A SWAP2 SWAP1 PUSH2 0x7A2 JUMP JUMPDEST SWAP1 DUP2 MSTORE PUSH1 0x20 ADD PUSH1 0x40 MLOAD DUP1 SWAP2 SUB SWAP1 KECCAK256 PUSH1 0x0 PUSH2 0x100 EXP DUP2 SLOAD DUP2 PUSH1 0xFF MUL NOT AND SWAP1 DUP4 ISZERO ISZERO MUL OR SWAP1 SSTORE POP PUSH32 0x99663D13E9D65AC4B162365CE28314E74FE942539A9B8FB37F36CD7FD04FFEB1 DUP4 DUP4 DUP4 PUSH1 0x40 MLOAD PUSH2 0x462 SWAP4 SWAP3 SWAP2 SWAP1 PUSH2 0xC73 JUMP JUMPDEST PUSH1 0x40 MLOAD DUP1 SWAP2 SUB SWAP1 LOG1 POP POP POP JUMP JUMPDEST PUSH1 0x0 PUSH1 0x40 MLOAD SWAP1 POP SWAP1 JUMP JUMPDEST PUSH1 0x0 DUP1 REVERT JUMPDEST PUSH1 0x0 DUP1 REVERT JUMPDEST PUSH1 0x0 DUP1 REVERT JUMPDEST PUSH1 0x0 DUP1 REVERT JUMPDEST PUSH1 0x0 PUSH1 0x1F NOT PUSH1 0x1F DUP4 ADD AND SWAP1 POP SWAP2 SWAP1 POP JUMP JUMPDEST PUSH32 0x4E487B7100000000000000000000000000000000000000000000000000000000 PUSH1 0x0 MSTORE PUSH1 0x41 PUSH1 0x4 MSTORE PUSH1 0x24 PUSH1 0x0 REVERT JUMPDEST PUSH2 0x4D6 DUP3 PUSH2 0x48D JUMP JUMPDEST DUP2 ADD DUP2 DUP2 LT PUSH8 0xFFFFFFFFFFFFFFFF DUP3 GT OR ISZERO PUSH2 0x4F5 JUMPI PUSH2 0x4F4 PUSH2 0x49E JUMP JUMPDEST JUMPDEST DUP1 PUSH1 0x40 MSTORE POP POP POP JUMP JUMPDEST PUSH1 0x0 PUSH2 0x508 PUSH2 0x46F JUMP JUMPDEST SWAP1 POP PUSH2 0x514 DUP3 DUP3 PUSH2 0x4CD JUMP JUMPDEST SWAP2 SWAP1 POP JUMP JUMPDEST PUSH1 0x0 PUSH8 0xFFFFFFFFFFFFFFFF DUP3 GT ISZERO PUSH2 0x534 JUMPI PUSH2 0x533 PUSH2 0x49E JUMP JUMPDEST JUMPDEST PUSH2 0x53D DUP3 PUSH2 0x48D JUMP JUMPDEST SWAP1 POP PUSH1 0x20 DUP2 ADD SWAP1 POP SWAP2 SWAP1 POP JUMP JUMPDEST DUP3 DUP2 DUP4 CALLDATACOPY PUSH1 0x0 DUP4 DUP4 ADD MSTORE POP POP POP JUMP JUMPDEST PUSH1 0x0 PUSH2 0x56C PUSH2 0x567 DUP5 PUSH2 0x519 JUMP JUMPDEST PUSH2 0x4FE JUMP JUMPDEST SWAP1 POP DUP3 DUP2 MSTORE PUSH1 0x20 DUP2 ADD DUP5 DUP5 DUP5 ADD GT ISZERO PUSH2 0x588 JUMPI PUSH2 0x587 PUSH2 0x488 JUMP JUMPDEST JUMPDEST PUSH2 0x593 DUP5 DUP3 DUP6 PUSH2 0x54A JUMP JUMPDEST POP SWAP4 SWAP3 POP POP POP JUMP JUMPDEST PUSH1 0x0 DUP3 PUSH1 0x1F DUP4 ADD SLT PUSH2 0x5B0 JUMPI PUSH2 0x5AF PUSH2 0x483 JUMP JUMPDEST JUMPDEST DUP2 CALLDATALOAD PUSH2 0x5C0 DUP5 DUP3 PUSH1 0x20 DUP7 ADD PUSH2 0x559 JUMP JUMPDEST SWAP2 POP POP SWAP3 SWAP2 POP POP JUMP JUMPDEST PUSH1 0x0 PUSH1 0x20 DUP3 DUP5 SUB SLT ISZERO PUSH2 0x5DF JUMPI PUSH2 0x5DE PUSH2 0x479 JUMP JUMPDEST JUMPDEST PUSH1 0x0 DUP3 ADD CALLDATALOAD PUSH8 0xFFFFFFFFFFFFFFFF DUP2 GT ISZERO PUSH2 0x5FD JUMPI PUSH2 0x5FC PUSH2 0x47E JUMP JUMPDEST JUMPDEST PUSH2 0x609 DUP5 DUP3 DUP6 ADD PUSH2 0x59B JUMP JUMPDEST SWAP2 POP POP SWAP3 SWAP2 POP POP JUMP JUMPDEST PUSH1 0x0 DUP2 ISZERO ISZERO SWAP1 POP SWAP2 SWAP1 POP JUMP JUMPDEST PUSH2 0x627 DUP2 PUSH2 0x612 JUMP JUMPDEST DUP3 MSTORE POP POP JUMP JUMPDEST PUSH1 0x0 PUSH1 0x20 DUP3 ADD SWAP1 POP PUSH2 0x642 PUSH1 0x0 DUP4 ADD DUP5 PUSH2 0x61E JUMP JUMPDEST SWAP3 SWAP2 POP POP JUMP JUMPDEST PUSH1 0x0 PUSH20 0xFFFFFFFFFFFFFFFFFFFFFFFFFFFFFFFFFFFFFFFF DUP3 AND SWAP1 POP SWAP2 SWAP1 POP JUMP JUMPDEST PUSH1 0x0 PUSH2 0x673 DUP3 PUSH2 0x648 JUMP JUMPDEST SWAP1 POP SWAP2 SWAP1 POP JUMP JUMPDEST PUSH2 0x683 DUP2 PUSH2 0x668 JUMP JUMPDEST DUP2 EQ PUSH2 0x68E JUMPI PUSH1 0x0 DUP1 REVERT JUMPDEST POP JUMP JUMPDEST PUSH1 0x0 DUP2 CALLDATALOAD SWAP1 POP PUSH2 0x6A0 DUP2 PUSH2 0x67A JUMP JUMPDEST SWAP3 SWAP2 POP POP JUMP JUMPDEST PUSH1 0x0 DUP1 PUSH1 0x0 PUSH1 0x60 DUP5 DUP7 SUB SLT ISZERO PUSH2 0x6BF JUMPI PUSH2 0x6BE PUSH2 0x479 JUMP JUMPDEST JUMPDEST PUSH1 0x0 DUP5 ADD CALLDATALOAD PUSH8 0xFFFFFFFFFFFFFFFF DUP2 GT ISZERO PUSH2 0x6DD JUMPI PUSH2 0x6DC PUSH2 0x47E JUMP JUMPDEST JUMPDEST PUSH2 0x6E9 DUP7 DUP3 DUP8 ADD PUSH2 0x59B JUMP JUMPDEST SWAP4 POP POP PUSH1 0x20 DUP5 ADD CALLDATALOAD PUSH8 0xFFFFFFFFFFFFFFFF DUP2 GT ISZERO PUSH2 0x70A JUMPI PUSH2 0x709 PUSH2 0x47E JUMP JUMPDEST JUMPDEST PUSH2 0x716 DUP7 DUP3 DUP8 ADD PUSH2 0x59B JUMP JUMPDEST SWAP3 POP POP PUSH1 0x40 PUSH2 0x727 DUP7 DUP3 DUP8 ADD PUSH2 0x691 JUMP JUMPDEST SWAP2 POP POP SWAP3 POP SWAP3 POP SWAP3 JUMP JUMPDEST PUSH1 0x0 DUP2 MLOAD SWAP1 POP SWAP2 SWAP1 POP JUMP JUMPDEST PUSH1 0x0 DUP2 SWAP1 POP SWAP3 SWAP2 POP POP JUMP JUMPDEST PUSH1 0x0 JUMPDEST DUP4 DUP2 LT ISZERO PUSH2 0x765 JUMPI DUP1 DUP3 ADD MLOAD DUP2 DUP5 ADD MSTORE PUSH1 0x20 DUP2 ADD SWAP1 POP PUSH2 0x74A JUMP JUMPDEST PUSH1 0x0 DUP5 DUP5 ADD MSTORE POP POP POP POP JUMP JUMPDEST PUSH1 0x0 PUSH2 0x77C DUP3 PUSH2 0x731 JUMP JUMPDEST PUSH2 0x786 DUP2 DUP6 PUSH2 0x73C JUMP JUMPDEST SWAP4 POP PUSH2 0x796 DUP2 DUP6 PUSH1 0x20 DUP7 ADD PUSH2 0x747 JUMP JUMPDEST DUP1 DUP5 ADD SWAP2 POP POP SWAP3 SWAP2 POP POP JUMP JUMPDEST PUSH1 0x0 PUSH2 0x7AE DUP3 DUP5 PUSH2 0x771 JUMP JUMPDEST SWAP2 POP DUP2 SWAP1 POP SWAP3 SWAP2 POP POP JUMP JUMPDEST PUSH1 0x0 DUP3 DUP3 MSTORE PUSH1 0x20 DUP3 ADD SWAP1 POP SWAP3 SWAP2 POP POP JUMP JUMPDEST PUSH32 0x5469636B657420646F6573206E6F742065786973740000000000000000000000 PUSH1 0x0 DUP3 ADD MSTORE POP JUMP JUMPDEST PUSH1 0x0 PUSH2 0x800 PUSH1 0x15 DUP4 PUSH2 0x7B9 JUMP JUMPDEST SWAP2 POP PUSH2 0x80B DUP3 PUSH2 0x7CA JUMP JUMPDEST PUSH1 0x20 DUP3 ADD SWAP1 POP SWAP2 SWAP1 POP JUMP JUMPDEST PUSH1 0x0 PUSH1 0x20 DUP3 ADD SWAP1 POP DUP2 DUP2 SUB PUSH1 0x0 DUP4 ADD MSTORE PUSH2 0x82F DUP2 PUSH2 0x7F3 JUMP JUMPDEST SWAP1 POP SWAP2 SWAP1 POP JUMP JUMPDEST PUSH32 0x416C726561647920766572696669656400000000000000000000000000000000 PUSH1 0x0 DUP3 ADD MSTORE POP JUMP JUMPDEST PUSH1 0x0 PUSH2 0x86C PUSH1 0x10 DUP4 PUSH2 0x7B9 JUMP JUMPDEST SWAP2 POP PUSH2 0x877 DUP3 PUSH2 0x836 JUMP JUMPDEST PUSH1 0x20 DUP3 ADD SWAP1 POP SWAP2 SWAP1 POP JUMP JUMPDEST PUSH1 0x0 PUSH1 0x20 DUP3 ADD SWAP1 POP DUP2 DUP2 SUB PUSH1 0x0 DUP4 ADD MSTORE PUSH2 0x89B DUP2 PUSH2 0x85F JUMP JUMPDEST SWAP1 POP SWAP2 SWAP1 POP JUMP JUMPDEST PUSH1 0x0 PUSH2 0x8AD DUP3 PUSH2 0x731 JUMP JUMPDEST PUSH2 0x8B7 DUP2 DUP6 PUSH2 0x7B9 JUMP JUMPDEST SWAP4 POP PUSH2 0x8C7 DUP2 DUP6 PUSH1 0x20 DUP7 ADD PUSH2 0x747 JUMP JUMPDEST PUSH2 0x8D0 DUP2 PUSH2 0x48D JUMP JUMPDEST DUP5 ADD SWAP2 POP POP SWAP3 SWAP2 POP POP JUMP JUMPDEST PUSH1 0x0 PUSH1 0x20 DUP3 ADD SWAP1 POP DUP2 DUP2 SUB PUSH1 0x0 DUP4 ADD MSTORE PUSH2 0x8F5 DUP2 DUP5 PUSH2 0x8A2 JUMP JUMPDEST SWAP1 POP SWAP3 SWAP2 POP POP JUMP JUMPDEST PUSH32 0x5469636B657420616C7265616479206578697374730000000000000000000000 PUSH1 0x0 DUP3 ADD MSTORE POP JUMP JUMPDEST PUSH1 0x0 PUSH2 0x933 PUSH1 0x15 DUP4 PUSH2 0x7B9 JUMP JUMPDEST SWAP2 POP PUSH2 0x93E DUP3 PUSH2 0x8FD JUMP JUMPDEST PUSH1 0x20 DUP3 ADD SWAP1 POP SWAP2 SWAP1 POP JUMP JUMPDEST PUSH1 0x0 PUSH1 0x20 DUP3 ADD SWAP1 POP DUP2 DUP2 SUB PUSH1 0x0 DUP4 ADD MSTORE PUSH2 0x962 DUP2 PUSH2 0x926 JUMP JUMPDEST SWAP1 POP SWAP2 SWAP1 POP JUMP JUMPDEST PUSH32 0x4E487B7100000000000000000000000000000000000000000000000000000000 PUSH1 0x0 MSTORE PUSH1 0x22 PUSH1 0x4 MSTORE PUSH1 0x24 PUSH1 0x0 REVERT JUMPDEST PUSH1 0x0 PUSH1 0x2 DUP3 DIV SWAP1 POP PUSH1 0x1 DUP3 AND DUP1 PUSH2 0x9B0 JUMPI PUSH1 0x7F DUP3 AND SWAP2 POP JUMPDEST PUSH1 0x20 DUP3 LT DUP2 SUB PUSH2 0x9C3 JUMPI PUSH2 0x9C2 PUSH2 0x969 JUMP JUMPDEST JUMPDEST POP SWAP2 SWAP1 POP JUMP JUMPDEST PUSH1 0x0 DUP2 SWAP1 POP DUP2 PUSH1 0x0 MSTORE PUSH1 0x20 PUSH1 0x0 KECCAK256 SWAP1 POP SWAP2 SWAP1 POP JUMP JUMPDEST PUSH1 0x0 PUSH1 0x20 PUSH1 0x1F DUP4 ADD DIV SWAP1 POP SWAP2 SWAP1 POP JUMP JUMPDEST PUSH1 0x0 DUP3 DUP3 SHL SWAP1 POP SWAP3 SWAP2 POP POP JUMP JUMPDEST PUSH1 0x0 PUSH1 0x8 DUP4 MUL PUSH2 0xA2B PUSH32 0xFFFFFFFFFFFFFFFFFFFFFFFFFFFFFFFFFFFFFFFFFFFFFFFFFFFFFFFFFFFFFFFF DUP3 PUSH2 0x9EE JUMP JUMPDEST PUSH2 0xA35 DUP7 DUP4 PUSH2 0x9EE JUMP JUMPDEST SWAP6 POP DUP1 NOT DUP5 AND SWAP4 POP DUP1 DUP7 AND DUP5 OR SWAP3 POP POP POP SWAP4 SWAP3 POP POP POP JUMP JUMPDEST PUSH1 0x0 DUP2 SWAP1 POP SWAP2 SWAP1 POP JUMP JUMPDEST PUSH1 0x0 DUP2 SWAP1 POP SWAP2 SWAP1 POP JUMP JUMPDEST PUSH1 0x0 PUSH2 0xA7C PUSH2 0xA77 PUSH2 0xA72 DUP5 PUSH2 0xA4D JUMP JUMPDEST PUSH2 0xA57 JUMP JUMPDEST PUSH2 0xA4D JUMP JUMPDEST SWAP1 POP SWAP2 SWAP1 POP JUMP JUMPDEST PUSH1 0x0 DUP2 SWAP1 POP SWAP2 SWAP1 POP JUMP JUMPDEST PUSH2 0xA96 DUP4 PUSH2 0xA61 JUMP JUMPDEST PUSH2 0xAAA PUSH2 0xAA2 DUP3 PUSH2 0xA83 JUMP JUMPDEST DUP5 DUP5 SLOAD PUSH2 0x9FB JUMP JUMPDEST DUP3 SSTORE POP POP POP POP JUMP JUMPDEST PUSH1 0x0 SWAP1 JUMP JUMPDEST PUSH2 0xABF PUSH2 0xAB2 JUMP JUMPDEST PUSH2 0xACA DUP2 DUP5 DUP5 PUSH2 0xA8D JUMP JUMPDEST POP POP POP JUMP JUMPDEST PUSH1 0x0 JUMPDEST DUP3 DUP2 LT ISZERO PUSH2 0xAF2 JUMPI PUSH2 0xAE7 PUSH1 0x0 DUP3 DUP5 ADD PUSH2 0xAB7 JUMP JUMPDEST PUSH1 0x1 DUP2 ADD SWAP1 POP PUSH2 0xAD2 JUMP JUMPDEST POP POP POP JUMP JUMPDEST PUSH1 0x1F DUP3 GT ISZERO PUSH2 0xB46 JUMPI DUP3 DUP3 GT ISZERO PUSH2 0xB45 JUMPI PUSH2 0xB11 DUP2 PUSH2 0x9C9 JUMP JUMPDEST PUSH2 0xB1A DUP4 PUSH2 0x9DE JUMP JUMPDEST PUSH2 0xB23 DUP6 PUSH2 0x9DE JUMP JUMPDEST PUSH1 0x20 DUP7 LT ISZERO PUSH2 0xB31 JUMPI PUSH1 0x0 SWAP1 POP JUMPDEST DUP1 DUP4 ADD PUSH2 0xB40 DUP3 DUP5 SUB DUP3 PUSH2 0xACF JUMP JUMPDEST POP POP POP POP JUMPDEST JUMPDEST POP POP POP JUMP JUMPDEST PUSH1 0x0 DUP3 DUP3 SHR SWAP1 POP SWAP3 SWAP2 POP POP JUMP JUMPDEST PUSH1 0x0 PUSH2 0xB69 PUSH1 0x0 NOT DUP5 PUSH1 0x8 MUL PUSH2 0xB4B JUMP JUMPDEST NOT DUP1 DUP4 AND SWAP2 POP POP SWAP3 SWAP2 POP POP JUMP JUMPDEST PUSH1 0x0 PUSH2 0xB82 DUP4 DUP4 PUSH2 0xB58 JUMP JUMPDEST SWAP2 POP DUP3 PUSH1 0x2 MUL DUP3 OR SWAP1 POP SWAP3 SWAP2 POP POP JUMP JUMPDEST PUSH2 0xB9B DUP3 PUSH2 0x731 JUMP JUMPDEST PUSH8 0xFFFFFFFFFFFFFFFF DUP2 GT ISZERO PUSH2 0xBB4 JUMPI PUSH2 0xBB3 PUSH2 0x49E JUMP JUMPDEST JUMPDEST PUSH2 0xBBE DUP3 SLOAD PUSH2 0x998 JUMP JUMPDEST PUSH2 0xBC9 DUP3 DUP3 DUP6 PUSH2 0xAF7 JUMP JUMPDEST PUSH1 0x0 PUSH1 0x20 SWAP1 POP PUSH1 0x1F DUP4 GT PUSH1 0x1 DUP2 EQ PUSH2 0xBFC JUMPI PUSH1 0x0 DUP5 ISZERO PUSH2 0xBEA JUMPI DUP3 DUP8 ADD MLOAD SWAP1 POP JUMPDEST PUSH2 0xBF4 DUP6 DUP3 PUSH2 0xB76 JUMP JUMPDEST DUP7 SSTORE POP PUSH2 0xC5C JUMP JUMPDEST PUSH1 0x1F NOT DUP5 AND PUSH2 0xC0A DUP7 PUSH2 0x9C9 JUMP JUMPDEST PUSH1 0x0 JUMPDEST DUP3 DUP2 LT ISZERO PUSH2 0xC32 JUMPI DUP5 DUP10 ADD MLOAD DUP3 SSTORE PUSH1 0x1 DUP3 ADD SWAP2 POP PUSH1 0x20 DUP6 ADD SWAP5 POP PUSH1 0x20 DUP2 ADD SWAP1 POP PUSH2 0xC0D JUMP JUMPDEST DUP7 DUP4 LT ISZERO PUSH2 0xC4F JUMPI DUP5 DUP10 ADD MLOAD PUSH2 0xC4B PUSH1 0x1F DUP10 AND DUP3 PUSH2 0xB58 JUMP JUMPDEST DUP4 SSTORE POP JUMPDEST PUSH1 0x1 PUSH1 0x2 DUP9 MUL ADD DUP9 SSTORE POP POP POP JUMPDEST POP POP POP POP POP POP JUMP JUMPDEST PUSH2 0xC6D DUP2 PUSH2 0x668 JUMP JUMPDEST DUP3 MSTORE POP POP JUMP JUMPDEST PUSH1 0x0 PUSH1 0x60 DUP3 ADD SWAP1 POP DUP2 DUP2 SUB PUSH1 0x0 DUP4 ADD MSTORE PUSH2 0xC8D DUP2 DUP7 PUSH2 0x8A2 JUMP JUMPDEST SWAP1 POP DUP2 DUP2 SUB PUSH1 0x20 DUP4 ADD MSTORE PUSH2 0xCA1 DUP2 DUP6 PUSH2 0x8A2 JUMP JUMPDEST SWAP1 POP PUSH2 0xCB0 PUSH1 0x40 DUP4 ADD DUP5 PUSH2 0xC64 JUMP JUMPDEST SWAP5 SWAP4 POP POP POP POP JUMP INVALID LOG2 PUSH5 0x6970667358 0x22 SLT KECCAK256 CALL 0xB2 0xC7 0xC 0xE9 0xBB PUSH6 0xF0A372B559D7 0x2E LOG4 0xC2 LOG0 MUL BYTE SWAP16 0xB0 DUP15 DUP14 0x2F BLOCKHASH 0xCF SWAP10 0xE8 0x26 SWAP6 PUSH28 0x7064736F6C6343000821003300000000000000000000000000000000 "
    }
  }
}